:1000000000800020AD130000ED130000EF1300008E
:1000100000000000000000000000000000000000E0
:10002000000000000000000000000000F1130000CC
:100030000000000000000000F3130000F5130000B2
:10004000F7130000290B000089020000F7130000DD
:10005000F713000000000000F7130000F713000082
:10006000F7130000F7130000F7130000F713000068
:10007000F7130000F7130000F7130000F713000058
:10008000F7130000F7130000F7130000F713000048
:10009000790E0000F7130000F7130000F7130000BB
:1000A000F7130000F713000000000000000000003C
:1000B0000000000000000000000000000000000040
:1000C00010B5064C2378002B07D1054B002B02D02E
:1000D000044800E000BF0123237010BDA8000020E9
:1000E000000000002C150000044B10B5002B03D0BD
:1000F0000349044800E000BF10BDC04600000000F6
:10010000AC0000202C150000402292029A1A924660
:100110007047C046174B002B00D1134B9D46FFF78D
:10012000F3FF00218B460F461348144A121A00F0C1
:1001300065F80E4B002B00D098470D4B002B00D0DC
:1001400098470020002104000D000D48002802D02F
:100150000C4800E000BF00F02DF82000290000F05E
:10016000B3F900F011F8C0460000080000000000DC
:100170000000000000800020A8000020680400208B
:100180000000000000000000084B10B50400002B28
:1001900002D0002100E000BF054B1868836A002BE5
:1001A00000D09847200000F031F8C0460000000061
:1001B0000415000070B500260C4D0D4C641BA410F6
:1001C000A64209D1002601F091F90A4D0A4C641BA0
:1001D000A410A64205D170BDB300EB589847013674
:1001E000EEE7B300EB5898470136F2E7A000002095
:1001F000A0000020A0000020A4000020030082181E
:10020000934200D1704719700133F9E7FEE7C04609
:10021000002300B585B001AA906000210348138037
:10022000536000F005F805B000BDC0460140000075
:10023000BFF34F8F034B044ADA60BFF34F8FC046C2
:10024000FDE7C04600ED00E00400FA05A02303220C
:100250000B49DB055A5004315A500A495A500431AF
:100260005A50A1228021D200890399508021C903CC
:100270009950802109049950802149049950704770
:10028000540700005C070000C12330B55E4A9B00A4
:10029000D35885B09B0559D592235B00D1580029CE
:1002A00054D00021D1508121E533FF338900D15052
:1002B000564B997E002901D10131516002226946D5
:1002C0000A7090215048C900425842506946039232
:1002D000DA7D68460A72DA6801920022DA751A76C7
:1002E0000ACB98478E21484A49005358002B0FD01B
:1002F000464B9C8A9D7DAC4262D200205050998A28
:100300009868405C998A013189B29982404BD050FB
:10031000A2233D4A5B00D158002915D00021D150BD
:100320003A4B997E002901D001211160DA7D002A23
:100330000AD0002268460121DA755A7E01700272E5
:10034000DA680ACB0192984705B030BDC1232E4A26
:100350009B00D3585B07C5D5842149005358002B17
:10036000C0D02A4BD87D002838D000205050A32080
:10037000C000597E1258D86842545A7ED87D013246
:10038000D2B25A765A7E8242ACD11A7E002A2AD143
:100390009A7E002A02D101211B4A5160C22281208B
:1003A0001949920080008850002268460121DA75C0
:1003B0005A7E01700272DA680ACB0192984791E77F
:1003C00000205050002DA3D06A46107015729A6814
:1003D0009875019268460ACB984799E75050A32137
:1003E000C9005258CEE7DA751A69D968DA60002276
:1003F0006C46587E1A765A76013220722270684610
:1004000001910ACB98476DE700200040C40000200E
:100410001C05000070B503780400012B14D0022BDA
:1004200005D10C4D280000F0C7FD0028FAD0A0220D
:10043000F021094BD2050902D150A1216368C900FE
:100440001B071B0C535070BD00F0AEFE00F0EEFD1C
:10045000EDE7C046E00000200C05000070B58AB052
:1004600002AC2200134B0093134B0193134B03CBAD
:1004700003C2134B100062CB62C262CB62C29623EE
:100480009B0083810F4B436000F082FB002801D06A
:100490000AB070BD684600F09FFE0028F8D101A8A0
:1004A00000F0DCFE0028F3D10821200000F016FF48
:1004B000EEE7C046E7E7E7E7C2C2C2C208150000A0
:1004C0001415000015040000A021E422F8B5032350
:1004D000CE464746C905D20080B58B50E021474A39
:1004E000C900535046495350043153504549535065
:1004F000043153504449535004315350FFF7A6FE82
:10050000802280210023D20549005350013313601B
:100510005358002BFCD0FFF7A1FF002800D06AE061
:10052000FFF794FE07239846033B00259946374C76
:10053000374E1EE08020374A00048850A0214A46EA
:10054000C9051A423FD08020324A40048850013306
:10055000A3713268304B3149C046C046C046C046E0
:10056000C046C046C046C0468A4200D0C046013B95
:10057000F2D12000E57000F0B7FC0028E9D1424636
:10058000A020A379C0051A40511E032921D8802735
:100590002049BF0347500621194224D0A0208027BC
:1005A0001C49C005FF034750A021033AC905032A8F
:1005B000C0D9A1228020D20000048850A0214A4640
:1005C000C9051A42BFD1A1228020D2004004885020
:1005D000BDE7A1218027C900BF034750062119426A
:1005E00001D0052ADAD9A020A1218027C005C900A1
:1005F000FF034750D8E7FFF70BFE91E724000050B8
:10060000040700000C070000140700006000002031
:100610009C0000200C05000050C300000024F400E2
:100620000649074B074ACA50074B084A5B7C013B07
:100630001B041343A322D2008B50704700100040CC
:1006400014050000060003008800002020000001BF
:100650000300094A09490A4850500A49487C0138B0
:10066000000418431B02184380235B041843A32390
:10067000DB00D0507047C046001000401405000059
:100680000001010088000020802314221A489B00EA
:10069000FF3270B5C250A822184BD2001968184B0F
:1006A000184C99501849E0258A896D01823A1A51EF
:1006B0000122A024DA60002264001A5104341A5185
:1006C000124B134C1D5180250434AD011D5186235E
:1006D0005B00C2500B78002B03D10E4B00201B682F
:1006E00098470D49044A0A4BD1500C4B0C4A1A60EA
:1006F00003220C4B1A7070BD0010004058040020FB
:1007000000A00040440500000801002000F0014066
:10071000040500006404002098020020600400200A
:100720007D09000030010020F0B5C646012200B569
:10073000454B464F1A60464A464E536A3D789B00E9
:1007400099583160002D4ED0012D27D1CB78002B48
:1007500000D16CE03B7D404C984642460B78A01C93
:1007600023700B795B00134363700A78053100F046
:10077000B3FE4346002B44D080221421374B920015
:10078000FF31995005320439FF32FF399950344B0B
:10079000344A31681A60344B1D7000E02E4C4878A2
:1007A0002E4B324A98504A78012108009040A622E8
:1007B000D20098502E4AD07CA122D20098502D4AC7
:1007C00002209C50C0242C4A64001051106000226A
:1007D0000330FF301A5004301A5008301A50196094
:1007E00080BCB846F0BD254B08781B689847316837
:1007F000194C0B79657023700A78A01C053100F044
:100800006BFE80221C21154B9200FF31995005325E
:100810000B39FF32FF399950FA89194B31681A6048
:100820000F4B184A1A6002220F4B1A70B7E70B7869
:10083000094C23700B79A01C5B0063700A780531AA
:1008400000F04AFEDDE7C0462C0100200801002030
:10085000E00200205C04002034040020001000406E
:100860006004002089080000300100202C050000F1
:10087000880000200405000000E100E0640400207E
:100880004001002089060000012110B5154A1368B7
:100890000B431360144B9A6A002A19D0802102245A
:1008A0001248013A44509A625A6A0132072A00D922
:1008B000002202215A620D4A11609B6A002B07D068
:1008C000802380215B004903D150FFF72DFF08E012
:1008D0000022074B80211A708023044A5B004903E1
:1008E000D15010BD28010020E002002000E100E00E
:1008F0003001002070B51D4C0600A36A0D000020D9
:10090000072B22D81A4B1A78012A1FD119490A78C5
:10091000202A1AD8236A9B00E05802700231053061
:1009200000F0DAFDA921236A13489A00A258C900F1
:1009300056704158013391701571072B00D900236F
:1009400001202362A36A0133A36270BD5A78002A92
:1009500005D1236A07499B00E0580270DEE7226A4E
:1009600004499200A058DA7C0270D7E744010020C5
:10097000080100209802002000100040A122E0237E
:10098000862070B556495B01D2008B50554B400014
:100990001858002832D08020C0001B58002B2DD0C2
:1009A0000120514B514E586080239B018B5033687E
:1009B0004F4D034333604F4B4F4C1A68EB899B1AE2
:1009C0004E4A01331360A36A002B5CD12B78002BB5
:1009D00000D16BE04A4B1B78002B00D070E0A36A7B
:1009E000002B63D02B7C012B60D080238021454AD3
:1009F0005B004903D150FFF797FE20E03D4A1368A2
:100A0000591E1160002B1BD10121374A80205160F3
:100A1000A1223349D200800188500220344A37494C
:100A2000D28901320A6031490A6802430A60802192
:100A3000354A49031370334A0133FF33D15070BD37
:100A400080231C22274CFF329B00E2502F4B802535
:100A50001B68AD0118782E4B1B6898472D4A2E4B0A
:100A60002E49A3502E4B1E4819600221264B1970A7
:100A70001D4B013919608550A22252009B58002B52
:100A8000DDD02160DBE780221E4901308850013B28
:100A9000A362636A0133072B00D900230222636239
:100AA000184B1A602B78002B99D093E70022164B35
:100AB00080211A708023134A5B004903D150BEE79E
:100AC000084A184B0021D058C0B2FFF713FF002886
:100AD00000D184E704223368134333607FE7C046C4
:100AE00000F001400010004000A00040280100205C
:100AF0000801002040010020E00200202C0100201D
:100B00009802002000E100E0300100205C04002099
:100B1000640400200405000034040020890600005D
:100B2000600400202C050000802210B5164B5200F6
:100B30009958002904D0C12189005958C90720D4E7
:100B40008622114B52009958002904D0C1218900F6
:100B50005958090712D488220B4B52009958002982
:100B60000BD0C12189005958C90606D500219950DA
:100B7000064B1B68002B00D0984710BD00219950F0
:100B8000E9E700219950DBE70010004060040020F5
:100B9000F8B54E46DE46574645468146E0B5002844
:100BA00000D11EE1904F3B78002B00D0CAE08F4B64
:100BB0008F4D98468F4B904C9B46904B9A464A4699
:100BC0008F4E904B526849461A603000182200F050
:100BD00083FC00228C4B00211A6058462432FFF718
:100BE0000DFB092200215046FFF708FBB17A874A26
:100BF000874BD150A221337AC9005350022B00D128
:100C0000EBE000D9CAE0002B00D1CAE03022814BD2
:100C10001A603378002B00D1CAE0012B00D1D8E054
:100C20007D4B1B68727A79497C480A50022A00D1B0
:100C3000C8E0012A06D1FF20794A88500820043AEA
:100C4000FF308850F07C9847764B00221900253100
:100C5000696019004A31A96019006F31E960190013
:100C6000943129611900B931696119002B6004338D
:100C7000FF33EB616C4BDE31A961190025316160F6
:100C800019004A31A16019006F31E16019009431F7
:100C900021611900B9312360616119000433FF3308
:100CA000E361A2230420DE31A1616049DB002A62F6
:100CB0006A62AA6222626262A262C850083BCA509B
:100CC00080235B489B00C850AC205A4B5A4CC00054
:100CD0001C505A48C0251950AD215948C9005850D8
:100CE00058495948AD00585058480431585058494F
:100CF000584858505848043158505849434858505B
:100D0000717C5748890744590B0C564921400B43C5
:100D100043510323C524B57CA4002B40FF25015972
:100D20009B01A9430B43035180235B0303604346AC
:100D30001A70012300203B70F0BCBB46B246A946A6
:100D4000A046F8BDA123F0213A4ADB008901D15029
:100D5000264B274D984600234246274C13702B62A2
:100D60006B62AB6223626362A362224B2422002186
:100D700018009B46FFF742FA204B09220021180079
:100D80009A46FFF73BFA80218023354A4903D15028
:100D900003211E4A8133FF33D15010E7032B00D0CB
:100DA00037E740221B4B1A603378002B00D034E722
:100DB000194A2D4B15491360727A18480A50022AB5
:100DC00000D036E7164A294888502948043A885006
:100DD00038E7284B104A136024E7FA220D4B1A60BB
:100DE00017E70E20A8E7C0462001002030010020B0
:100DF000E0020020BC020020440100203401002059
:100E000008010020240100202801002000100040DB
:100E10000C05000058040020640400203405000084
:100E20003C0500000C0300207001002000A00040E1
:100E30000202000000F001400011004064050000C3
:100E4000041100406C05000004A0004040A10040D7
:100E5000740500001010004044A100407C05000013
:100E600000E100E0FF00FFFF51060000FFFF00006F
:100E7000211001002106000030B5164B83B01B681D
:100E80000193154B1B78002B22D0022280210020D9
:100E9000124B134D5A5013490C6808601A602B68A6
:100EA000002B15D0E20703D56A46107068469847B4
:100EB000A30705D501236A46684613702B68984737
:100EC000630705D502236A46684613702B68984766
:100ED00003B030BD2C0100202001002000E100E023
:100EE000240100202801002070B52D4B04001B7840
:100EF000002B47D000284BD003785A1E1F2A3FD81A
:100F0000284E3278002A38D0274DAB6A072B3DD8BF
:100F10007378002B05D1E378002B02D0337D002BB2
:100F200038D080230221214AD1502B6A25229B00F0
:100F30002100E85800F0D0FA03231D4A6078115CC4
:100F400001310B40135461782B6A515C9A00AA5806
:100F500001331171072B17D802222B62AB6A0024D0
:100F60000133AB62114B1A60327C73781343114A20
:100F70001278134310D0200070BDF27C9A42C3D285
:100F80000924F8E70824F6E70023E5E70424F2E75C
:100F90000E24F0E70624EEE7FFF7C6FBEBE7C046BA
:100FA0002001002008010020E002002000E100E014
:100FB000340100203001002010B5194B1B78002BA4
:100FC00029D0002829D0174CA36A002B21D08023D8
:100FD0000221154AD150636A9B00E1580A780270D9
:100FE0004B7843700223CB5683700B790531037124
:100FF000053000F071FA636A0133072B00D9002332
:10100000022200206362A36A013BA362064B1A60BE
:1010100010BD0520FCE70820FAE70E20F8E7C046DF
:10102000200100204401002000E100E0F8B5CE4698
:10103000474680B54C4C2378002B3CD14B4B9A6AE9
:10104000002A35D001214A4A4A4F11605A6A92005B
:10105000D158494B39601E789846002E54D0012E45
:101060002BD0464D4878464B464AC02498504A7883
:10107000012108009040A622D2009850424A640004
:10108000D07CA122D20098500220404A9D50404A74
:101090001051106000220330FF301A5004301A50F3
:1010A00008301A5000201960C0BCB946B046F8BDDF
:1010B00080204000F8E71120F6E7CB78002B47D0DE
:1010C00043461B7D2D4D99464A460B78A81C2B7034
:1010D0000B795B0013436B700A78053100F0FCF963
:1010E0004B46002B1ED080221421254B9200FF314D
:1010F000995005320439FF32FF399950254B264A61
:1011000039681A602670ADE7244B08781B68984749
:1011100039681A4D0B796E702B700A78A81C05314E
:1011200000F0DAF980221C21154B9200FF31995012
:1011300005320B39FF32FF3999504346DA89184B93
:1011400039681A60134B174A1A600223237089E723
:101150000B780A4D2B700B79A81C5B006B700A781A
:10116000053100F0B9F9DDE730010020E002002090
:101170002C0100205C040020080100203404002021
:10118000001000402C05000088000020040500002D
:1011900000E100E0600400208908000064040020F1
:1011A0004001002089060000084B1B78002B0BD063
:1011B0000220802300220649C850064B9A621A6218
:1011C0005A620860002070470820FCE720010020D8
:1011D00000E100E0E002002010B5164B01001B7892
:1011E000002B22D1002822D0134C0422200000F032
:1011F00073F900202168114B0A091A40104B0901AC
:1012000019400A430F4993080B400F4992000A40C6
:1012100013430E495A080A400D495B000B40134323
:101220000C490D4A1BBA8B5010BD1120FCE70E2053
:10123000FAE7C04630010020880000200F0F0F0F92
:10124000F0F0F0F033333333CCCCCCCC555555558E
:10125000AAAAAAAA001000401C05000010B5164B4F
:1012600001001B78002B23D1002823D0134C04222B
:10127000201D00F031F96168114B0A091A40114B29
:10128000090119400A43104993080B400F49920085
:101290000A4013430E495A080A400E495B000B40AE
:1012A0001343A42200200C491BBAD2008B5010BD5E
:1012B0001120FCE70E20FAE7300100208800002012
:1012C0000F0F0F0FF0F0F0F033333333CCCCCCCC26
:1012D00055555555AAAAAAAA00100040F0B5C64611
:1012E00000B5284A030012780C00002A46D10028D5
:1012F00046D0082940D8244E0A0030001900083092
:1013000000F0EAF80821FF2334740C1B2341B37466
:101310001E4B1F4898468446B1681E4F0A091A4062
:101320001D4B090119400A439108920001403A40BF
:101330001A4D1B4C11434A0849002A4021401948C4
:101340001143194A8150F16846460A0909010B40C8
:10135000614632401A43930892003A400B401343CF
:101360005A081540A5225B0023402B43D20083502E
:10137000002080BCB846F0BD0720FAE71120F8E74E
:101380000E20F6E730010020880000200F0F0F0F1D
:1013900033333333CCCCCCCCF0F0F0F0555555553D
:1013A000AAAAAAAA001000402405000003210A48A6
:1013B00002680A430260094802680A430260084959
:1013C000084A094B9B1A03DD043BC858D050FBDC8C
:1013D00000F012F8FEF79EFE240500405405004080
:1013E0003815000000000020A8000020FEE7FEE7FE
:1013F000FEE7FEE7FEE7FEE72D4B1B78012B00D052
:1014000070472C4B1B681B07FAD12B4AF02312683C
:10141000110019401A4201D0102946D1274A1268FA
:101420001A421FD0F022244B1B681340402B29D0B6
:10143000F022214B1B681340A02B01D0D02BDFD111
:10144000F0231E4A12681A42DAD11D4A1368012B92
:1014500004D01C4B13601368012BFCD1C0221A4B23
:101460001A60CDE7194B1A4A1A608022194B1202F2
:101470001A600F4B1B78012BC2D10E4B1B681B0748
:10148000D0D0BDE70D4B1B681342D1D18022C123C0
:101490000121DB00D205D150054B1B78012BAFD1C8
:1014A000044B1B681B07C3D0AAE73029B6D0B9E7A5
:1014B000E00F00F0E40F00F0E80F00F0EC0F00F098
:1014C00000EC06407593000014EC06400405004053
:1014D000DFFF07C0186C0040002310B59A4200D10E
:1014E00010BDCC5CC4540133F8E70000F8B5C04629
:1014F000F8BC08BC9E467047F8B5C046F8BC08BCAE
:101500009E46704700000020E7C2C3C4C5C6C7C8D6
:1015100000000000010000000000000001020000C7
:10152000FA0003000001022000000000000000009B
:08153000D8EBFF7F0100000071
:1015380000000000000000000000000000000000A3
:101548000000000000000000000000000000000093
:101558000000000000000000000000000000000083
:101568000000000000000000000000000000000073
:101578000000000000000000000000000000000063
:101588000000000000000000000000000000000053
:101598000800000000010000001100000000000029
:1015A8000000000000000000000000000000000033
:1015B8000000000000000000E7E7E7E7C2C2C2C27F
:1015C800E7C2C3C4C5C6C7C80805FF020024F400A3
:0815D800E9000000C100000061
:04000003000013AD39
:00000001FF
