:020000021000EC
:10B0000000800020B1B10100F1B10100F3B10100F5
:10B010000000000000000000000000000000000030
:10B02000000000000000000000000000F5B1010079
:10B030000000000000000000F7B10100F9B10100BC
:10B04000FBB10100FBB10100FBB10100FBB101004C
:10B05000FBB1010000000000FBB10100FBB10100E9
:10B06000FBB10100FBB10100FBB10100FBB101002C
:10B07000FBB10100FBB10100FBB10100FBB101001C
:10B08000FBB1010059B20100FBB10100FBB10100AD
:10B09000FBB10100FBB10100FBB10100FBB10100FC
:10B0A000FBB10100FBB10100000000000000000046
:10B0B0000000000000000000000000000000000090
:10B0C00010B5064C2378002B07D1054B002B02D07E
:10B0D000044800E000BF0123237010BDEC200020D5
:10B0E00000000000ACB40100044B10B5002B03D0ED
:10B0F0000349044800E000BF10BDC0460000000046
:10B10000F0200020ACB40100164B002B00D1144BF2
:10B110009D46402292029A1A924600218B460F4683
:10B120001348144A121A00F087F90F4B002B00D075
:10B1300098470E4B002B00D09847002000210400B8
:10B140000D000D48002802D00C4800E000BF00F0C0
:10B150004FF92000290000F08FF800F033F9C046C5
:10B160000000080000800020000000000000000037
:10B17000EC2000200C210020000000000000000056
:10B1800010B501210D2000F0B5F810BD10B5FA245E
:10B190000121A4000D2000F0CBF8200000F04EF8B3
:10B1A00000210D2000F0C4F8200000F047F810BD89
:10B1B00003210A4802680A430260094802680A43F8
:10B1C00002600849084A094B9B1A03DD043BC85832
:10B1D000D050FBDC00F012F8FFF796FF240500408A
:10B1E00054050040B8B4010080200020EC2000206D
:10B1F000FEE7FEE7FEE7FEE7FEE7FEE7014B024A59
:10B200001A607047802000200024F4000849094A91
:10B21000094B10B51B688858FA22190A1B061843F7
:10B220009200002300F0A4F84904C00B084310BDAD
:10B2300000100140040500000821002070B5041E24
:10B2400009D0FFF7E3FF050000F014F8FFF7DEFF79
:10B25000401BA042F8D370BD0022044B9A60044A00
:10B2600013680133DBB213607047C046FC10014025
:10B27000082100207047704710B500F011F8FFF763
:10B28000FAFF0120FFF7DAFFFFF77AFFFFF77EFFF3
:10B29000024B002BFAD000E000BFF7E700000000EF
:10B2A000C420114B80001A5810491140C0221202CC
:10B2B0000A431A50C0218022490092025A501A6053
:10B2C0008023A3220021DB05D20099500122F9300E
:10B2D0009A60074BFF301950C1200231800019508D
:10B2E000403019501A60704700E100E0FF00FFFF96
:10B2F0000010014000B5102810D80C4A8000835877
:10B3000003290BD8A0220800C133FF33D2059B00CC
:10B3100000F024F8020905070021D15000BD0C21DE
:10B32000FBE70421F9E70321F7E7C04664B4010015
:10B3300010280AD8074B8000C25801239340A0224E
:10B34000D205002902D1044953507047A121C900F8
:10B35000FAE7C04664B401000C05000002B471466F
:10B3600049084900095C49008E4402BC7047C04648
:10B37000F0B5CE46474615042D0C2E0080B50704C7
:10B38000140C3F0C9946030C7E435D4367436343B3
:10B390007F19340CE4199C46A54203D980235B0233
:10B3A0009846C4444B4643435143250C36046544F8
:10B3B000360C2404A4195B19591820000CBC9046C3
:10B3C0009946F0BD084B10B50400002B02D00021B7
:10B3D00000E000BF054B1868836A002B00D0984737
:10B3E000200000F031F8C04600000000A8B40100C1
:10B3F00070B500260C4D0D4C641BA410A64209D15B
:10B40000002600F023F80A4D0A4C641BA410A64243
:10B4100005D170BDB300EB5898470136EEE7B30095
:10B42000EB5898470136F2E7E4200020E4200020A2
:10B43000E4200020E820002003001218934200D1ED
:10B44000704719700133F9E7FEE7C046F8B5C0460A
:10B45000F8BC08BC9E467047F8B5C046F8BC08BCAE
:10B460009E4670471400000012000000100000000B
:10B470000F0000000C0000000B000000090000009D
:10B480001800000015000000000000001A00000075
:10B490001B00000002000000010000000800000086
:10B4A00005000000030000008420002000000000D0
:08B4B00058FCFF7F01000000C1
:10B4B8000024F4000000000000000000000000006C
:10B4C8000000000000000000000000000000000074
:10B4D8000000000000000000000000000000000064
:10B4E8000000000000000000000000000000000054
:10B4F8000000000000000000000000000000000044
:10B508000000000000000000000000000000000033
:0CB5180000000000E9B00100C1B001001B
:040000031000B1B187
:00000001FF
