:1000000000800020AD130000ED130000EF1300008E
:1000100000000000000000000000000000000000E0
:10002000000000000000000000000000F1130000CC
:100030000000000000000000F3130000F5130000B2
:10004000F7130000A50C0000AD020000F71300003C
:10005000F713000000000000F7130000F713000082
:10006000F7130000F7130000F7130000F713000068
:10007000F7130000F7130000F7130000F713000058
:10008000F7130000F7130000F7130000F713000048
:10009000F50F0000F7130000F7130000F71300003E
:1000A000F7130000F713000000000000000000003C
:1000B0000000000000000000000000000000000040
:1000C00010B5064C2378002B07D1054B002B02D02E
:1000D000044800E000BF0123237010BDA8000020E9
:1000E000000000002C150000044B10B5002B03D0BD
:1000F0000349044800E000BF10BDC04600000000F6
:10010000AC0000202C150000402292029A1A924660
:100110007047C046174B002B00D1134B9D46FFF78D
:10012000F3FF00218B460F461348144A121A00F0C1
:1001300065F80E4B002B00D098470D4B002B00D0DC
:1001400098470020002104000D000D48002802D02F
:100150000C4800E000BF00F02DF82000290000F05E
:10016000C5FA00F011F8C0460000080000000000C9
:100170000000000000800020A80000207C04002077
:100180000000000000000000084B10B50400002B28
:1001900002D0002100E000BF054B1868836A002BE5
:1001A00000D09847200000F031F8C0460000000061
:1001B0000415000070B500260C4D0D4C641BA410F6
:1001C000A64209D1002601F091F90A4D0A4C641BA0
:1001D000A410A64205D170BDB300EB589847013674
:1001E000EEE7B300EB5898470136F2E7A000002095
:1001F000A0000020A0000020A4000020030082181E
:10020000934200D1704719700133F9E7FEE7C04609
:10021000002300B585B001AA906000210348138037
:10022000536000F005F805B000BDC0460140000075
:10023000BFF34F8F034B044ADA60BFF34F8FC046C2
:10024000FDE7C04600ED00E00400FA05A022A1236E
:100250008021D205DB008903D1508021C903D15010
:1002600080210904D15080214904D1507047C046F3
:10027000A02303220B49DB055A5004315A500A4986
:100280005A5004315A50A1228021D200890399503A
:100290008021C90399508021090499508021490483
:1002A00099507047540700005C070000C12330B527
:1002B0005E4A9B00D35885B09B0559D592235B00BD
:1002C000D158002954D00021D1508121E533FF338A
:1002D0008900D150564B997E002901D101315160DE
:1002E000022269460A7090215048C9004258425083
:1002F00069460392DA7D68460A72DA680192002242
:10030000DA751A760ACB98478E21484A4900535825
:10031000002B0FD0464B9C8A9D7DAC4262D20020C0
:100320005050998A9868405C998A013189B29982C3
:10033000404BD050A2233D4A5B00D158002915D034
:100340000021D1503A4B997E002901D00121116042
:10035000DA7D002A0AD0002268460121DA755A7E29
:1003600001700272DA680ACB0192984705B030BD7D
:10037000C1232E4A9B00D3585B07C5D58421490071
:100380005358002BC0D02A4BD87D002838D00020ED
:100390005050A320C000597E1258D86842545A7E4B
:1003A000D87D0132D2B25A765A7E8242ACD11A7EC0
:1003B000002A2AD19A7E002A02D101211B4A5160CB
:1003C000C22281201949920080008850002268468C
:1003D0000121DA755A7E01700272DA680ACB019245
:1003E000984791E700205050002DA3D06A46107026
:1003F00015729A689875019268460ACB984799E7F2
:100400005050A321C9005258CEE7DA751A69D9684D
:10041000DA6000226C46587E1A765A7601322072D3
:100420002270684601910ACB98476DE70020004092
:10043000C40000201C05000010B50378012B45D036
:10044000022B3FD13D4C200000F074FE0028FAD072
:100450003B4A637911684A42514101221A40914254
:1004600037D0A021A1228020C905D2008003885066
:1004700034499A070968D20F48424141914236D126
:10048000A0218020304AC905C00388502F495A074F
:100490000968D20F48424141914237D1A0218020C2
:1004A000294AC90500048850294A1B071268DB0F36
:1004B00051424A419A4238D1A0228021224BD20592
:1004C0004904D1500122234B1A7010BD00F06CFE7C
:1004D000F8E7A02180201C4AC905800388501949EB
:1004E0009A070968D20F484241419142C8D0A021E1
:1004F000A1228020C905D200C003885013495A07A1
:100500000968D20F484241419142C7D0A021A1229F
:100510008020C905D200000488500D4A1B071268CC
:10052000DB0F51424A419A42C6D0A022A12380212A
:10053000D205DB004904D150C4E7C046F4000020D6
:10054000E0000020E40000200C050000E80000208E
:10055000EC000020F000002010B58024054BE405DD
:10056000E258E250FFF772FEA0230122DB00E250C6
:10057000E358FEE72405000070B58AB002AC220003
:10058000154B0093154B0193154B03CB03C2154B31
:10059000100062CB62C262CB62C20623C381124BDF
:1005A000436000F0B3FB002801D00AB070BD68467C
:1005B00000F012FE0028F8D101A800F04FFE00283C
:1005C000F3D10821200000F089FE0028EDD103229C
:1005D000064B1A805871E8E7E7E7E7E7C2C2C2C2F4
:1005E0000815000014150000390400006000002008
:1005F00070B5A220A0240122E405C00025581F4B9D
:100600006D0C15401D6023581D499B0C13400B6059
:1006100021581C4EC90C114031602058000D024079
:1006200019480260002D04D10126184C607930432E
:100630006071002B04D10226144C60793043607144
:10064000002904D10426114C607930436071002ADE
:1006500004D108260D4C6079304360715B195B183A
:100660009B18032B04D001220020094B1A7070BD87
:1006700000230648C37000F0F5FCF8E7E000002016
:10068000E4000020E8000020EC00002060000020D2
:10069000F0000020A023104A1049DB0510B55A5085
:1006A00004315A500E495A5004315A500D4B0E49DC
:1006B0001A68FA239B00C046C046C046C046C046E2
:1006C000C046C046C0468A4200D0C046013BF2D177
:1006D000FFF7CEFD10BDC0460C000300440700002C
:1006E0004C0700009C0000200024F40080228021A0
:1006F000F8B50023D2054900535001331360535815
:10070000002BFCD0FFF738FF00283AD1FFF7C2FFDB
:1007100080211F4AC9058858002300090D2804D1EB
:100720008B580230034000208850D02280200133B3
:1007300017491A43C0054250164A1B019371FFF72F
:1007400057FF002820D1A020A221802480258026C8
:100750008027114AC005C900A402ED0236037F03B9
:100760001378002BFCD043582342F9D043582B4236
:10077000F6D043583342F3D043583B42F0D0FFF712
:10078000EBFEFFF745FDC1E7FFF742FDDBE7C046A3
:100790001C05000060000020F00000200649074B07
:1007A000074ACA50074B084A5B7C013B1B041343B2
:1007B000A322D2008B5070470010004014050000A7
:1007C0000600030088000020200000010300094A01
:1007D00009490A4850500A49487C01380004184326
:1007E0001B02184380235B041843A323DB00D05073
:1007F0007047C046001000401405000000010100D1
:1008000088000020802314221A489B00FF3270B514
:10081000C250A822184BD2001968184B184C995096
:100820001849E0258A896D01823A1A510122A024D3
:10083000DA60002264001A5104341A51124B134C2E
:100840001D5180250434AD011D5186235B00C2502B
:100850000B78002B03D10E4B00201B6898470D49E5
:10086000044A0A4BD1500C4B0C4A1A6003220C4B21
:100870001A7070BD001000406C04002000A0004001
:10088000440500001C01002000F0014004050000A8
:1008900078040020AC02002074040020F90A000053
:1008A00044010020F0B5C646012200B5454B464F35
:1008B0001A60464A464E536A3D789B00995831600B
:1008C000002D4ED0012D27D1CB78002B00D16CE02C
:1008D0003B7D404C984642460B78A01C23700B7918
:1008E0005B00134363700A78053100F0F5FD434661
:1008F000002B44D080221421374B9200FF319950B5
:1009000005320439FF32FF399950344B344A31688B
:100910001A60344B1D7000E02E4C48782E4B324A42
:1009200098504A78012108009040A622D2009850A1
:100930002E4AD07CA122D20098502D4A02209C50F1
:10094000C0242C4A64001051106000220330FF3094
:100950001A5004301A5008301A50196080BCB8463A
:10096000F0BD254B08781B6898473168194C0B7906
:10097000657023700A78A01C053100F0ADFD80225F
:100980001C21154B9200FF31995005320B39FF3273
:10099000FF399950FA89194B31681A600F4B184A80
:1009A0001A6002220F4B1A70B7E70B78094C2370BC
:1009B0000B79A01C5B0063700A78053100F08CFD98
:1009C000DDE7C046400100201C010020F4020020A9
:1009D000700400204804002000100040740400202F
:1009E000050A0000440100202C05000088000020BA
:1009F0000405000000E100E078040020540100201C
:100A000005080000012110B5154A13680B43136057
:100A1000144B9A6A002A19D0802102241248013A04
:100A200044509A625A6A0132072A00D900220221F0
:100A30005A620D4A11609B6A002B07D080238021E7
:100A40005B004903D150FFF72DFF08E00022074B60
:100A500080211A708023044A5B004903D15010BDE5
:100A60003C010020F402002000E100E044010020ED
:100A700070B51D4C0600A36A0D000020072B22D87C
:100A80001A4B1A78012A1FD119490A78202A1AD834
:100A9000236A9B00E05802700231053000F01CFD13
:100AA000A921236A13489A00A258C90056704158D8
:100AB000013391701571072B00D9002301202362A7
:100AC000A36A0133A36270BD5A78002A05D1236A54
:100AD00007499B00E0580270DEE7226A0449920051
:100AE000A058DA7C0270D7E7580100201C010020D2
:100AF000AC02002000100040A122E023862070B547
:100B000056495B01D2008B50554B400018580028C5
:100B100032D08020C0001B58002B2DD00120514B1B
:100B2000514E586080239B018B5033684F4D0343D7
:100B300033604F4B4F4C1A68EB899B1A4E4A013376
:100B40001360A36A002B5CD12B78002B00D16BE0E3
:100B50004A4B1B78002B00D070E0A36A002B63D0B7
:100B60002B7C012B60D080238021454A5B00490308
:100B7000D150FFF797FE20E03D4A1368591E1160DF
:100B8000002B1BD10121374A80205160A12233491B
:100B9000D200800188500220344A3749D28901327C
:100BA0000A6031490A6802430A608021354A4903D4
:100BB0001370334A0133FF33D15070BD80231C22A0
:100BC000274CFF329B00E2502F4B80251B68AD0164
:100BD00018782E4B1B6898472D4A2E4B2E49A35050
:100BE0002E4B1E4819600221264B19701D4B0139EE
:100BF00019608550A22252009B58002BDDD0216045
:100C0000DBE780221E4901308850013BA362636A02
:100C10000133072B00D9002302226362184B1A60AC
:100C20002B78002B99D093E70022164B80211A7065
:100C30008023134A5B004903D150BEE7084A184B92
:100C40000021D058C0B2FFF713FF002800D184E77D
:100C500004223368134333607FE7C04600F001404D
:100C60000010004000A000403C0100201C010020BA
:100C700054010020F402002040010020AC020020BA
:100C800000E100E04401002070040020780400200E
:100C9000040500004804002005080000740400203A
:100CA0002C050000802210B5164B520099580029DF
:100CB00004D0C12189005958C90720D48622114B7C
:100CC00052009958002904D0C121890059580907B8
:100CD00012D488220B4B5200995800290BD0C12105
:100CE00089005958C90606D500219950064B1B6842
:100CF000002B00D0984710BD00219950E9E7002152
:100D00009950DBE70010004074040020F8B54E460F
:100D1000DE46574645468146E0B5002800D11EE133
:100D2000904F3B78002B00D0CAE08F4B8F4D9846F8
:100D30008F4B904C9B46904B9A464A468F4E904B19
:100D4000526849461A603000182200F0C5FB0022A4
:100D50008C4B00211A6058462432FFF74FFA0922C3
:100D600000215046FFF74AFAB17A874A874BD150A3
:100D7000A221337AC9005350022B00D1EBE000D9F5
:100D8000CAE0002B00D1CAE03022814B1A603378D0
:100D9000002B00D1CAE0012B00D1D8E07D4B1B68AD
:100DA000727A79497C480A50022A00D1C8E0012AA7
:100DB00006D1FF20794A88500820043AFF30885035
:100DC000F07C9847764B00221900253169601900A4
:100DD0004A31A96019006F31E96019009431296125
:100DE0001900B931696119002B600433FF33EB61DD
:100DF0006C4BDE31A96119002531616019004A315F
:100E0000A16019006F31E16019009431216119006E
:100E1000B9312360616119000433FF33E361A22318
:100E20000420DE31A1616049DB002A626A62AA62A5
:100E300022626262A262C850083BCA5080235B48AB
:100E40009B00C850AC205A4B5A4CC0001C505A480A
:100E5000C0251950AD215948C90058505849594822
:100E6000AD005850584804315850584958485850C7
:100E7000584804315850584943485850717C574895
:100E8000890744590B0C564921400B434351032316
:100E9000C524B57CA4002B40FF2501599B01A94323
:100EA0000B43035180235B03036043461A70012305
:100EB00000203B70F0BCBB46B246A946A046F8BD38
:100EC000A123F0213A4ADB008901D150264B274D5E
:100ED000984600234246274C13702B626B62AB622C
:100EE00023626362A362224B2422002118009B46E6
:100EF000FFF784F9204B0922002118009A46FFF7DA
:100F00007DF980218023354A4903D15003211E4AAF
:100F10008133FF33D15010E7032B00D037E7402255
:100F20001B4B1A603378002B00D034E7194A2D4B45
:100F300015491360727A18480A50022A00D036E721
:100F4000164A294888502948043A885038E7284BDF
:100F5000104A136024E7FA220D4B1A6017E70E209F
:100F6000A8E7C0463401002044010020F40200201C
:100F7000D002002058010020480100201C01002060
:100F8000380100203C010020001000400C0500004A
:100F90006C04002078040020340500003C050000AB
:100FA000200300208401002000A000400202000075
:100FB00000F00140001100406405000004110040F1
:100FC0006C05000004A0004040A100407405000032
:100FD0001010004044A100407C05000000E100E04A
:100FE000FF00FFFFCD070000FFFF00002110010000
:100FF0009D07000030B5164B83B01B680193154B5D
:101000001B78002B22D0022280210020124B134D8E
:101010005A5013490C6808601A602B68002B15D0D1
:10102000E20703D56A46107068469847A30705D5BE
:1010300001236A46684613702B689847630705D5F5
:1010400002236A46684613702B68984703B030BD88
:10105000400100203401002000E100E038010020C0
:101060003C01002070B52D4B04001B78002B47D0AD
:1010700000284BD003785A1E1F2A3FD8284E3278BA
:10108000002A38D0274DAB6A072B3DD87378002B48
:1010900005D1E378002B02D0337D002B38D080239C
:1010A0000221214AD1502B6A25229B002100E858B9
:1010B00000F012FA03231D4A6078115C01310B40E5
:1010C000135461782B6A515C9A00AA58013311714C
:1010D000072B17D802222B62AB6A00240133AB62C4
:1010E000114B1A60327C73781343114A1278134300
:1010F00010D0200070BDF27C9A42C3D20924F8E7D8
:101100000824F6E70023E5E70424F2E70E24F0E7DD
:101110000624EEE7FFF7C6FBEBE7C04634010020EC
:101120001C010020F402002000E100E04801002042
:101130004401002010B5194B1B78002B29D0002842
:1011400029D0174CA36A002B21D080230221154AF5
:10115000D150636A9B00E1580A7802704B78437063
:101160000223CB5683700B7905310371053000F0F3
:10117000B3F9636A0133072B00D900230222002050
:101180006362A36A013BA362064B1A6010BD05208F
:10119000FCE70820FAE70E20F8E7C04634010020FB
:1011A0005801002000E100E0084B1B78002B0BD019
:1011B0000220802300220649C850064B9A621A6218
:1011C0005A620860002070470820FCE734010020C4
:1011D00000E100E0F402002010B5164B01001B787E
:1011E000002B22D1002822D0134C0422200000F032
:1011F00073F900202168114B0A091A40104B0901AC
:1012000019400A430F4993080B400F4992000A40C6
:1012100013430E495A080A400D495B000B40134323
:101220000C490D4A1BBA8B5010BD1120FCE70E2053
:10123000FAE7C04644010020880000200F0F0F0F7E
:10124000F0F0F0F033333333CCCCCCCC555555558E
:10125000AAAAAAAA001000401C05000010B5164B4F
:1012600001001B78002B23D1002823D0134C04222B
:10127000201D00F031F96168114B0A091A40114B29
:10128000090119400A43104993080B400F49920085
:101290000A4013430E495A080A400E495B000B40AE
:1012A0001343A42200200C491BBAD2008B5010BD5E
:1012B0001120FCE70E20FAE74401002088000020FE
:1012C0000F0F0F0FF0F0F0F033333333CCCCCCCC26
:1012D00055555555AAAAAAAA00100040F0B5C64611
:1012E00000B5284A030012780C00002A46D10028D5
:1012F00046D0082940D8244E0A0030001900083092
:1013000000F0EAF80821FF2334740C1B2341B37466
:101310001E4B1F4898468446B1681E4F0A091A4062
:101320001D4B090119400A439108920001403A40BF
:101330001A4D1B4C11434A0849002A4021401948C4
:101340001143194A8150F16846460A0909010B40C8
:10135000614632401A43930892003A400B401343CF
:101360005A081540A5225B0023402B43D20083502E
:10137000002080BCB846F0BD0720FAE71120F8E74E
:101380000E20F6E744010020880000200F0F0F0F09
:1013900033333333CCCCCCCCF0F0F0F0555555553D
:1013A000AAAAAAAA001000402405000003210A48A6
:1013B00002680A430260094802680A430260084959
:1013C000084A094B9B1A03DD043BC858D050FBDC8C
:1013D00000F012F8FEF79EFE240500405405004080
:1013E0003815000000000020A8000020FEE7FEE7FE
:1013F000FEE7FEE7FEE7FEE72D4B1B78012B00D052
:1014000070472C4B1B681B07FAD12B4AF02312683C
:10141000110019401A4201D0102946D1274A1268FA
:101420001A421FD0F022244B1B681340402B29D0B6
:10143000F022214B1B681340A02B01D0D02BDFD111
:10144000F0231E4A12681A42DAD11D4A1368012B92
:1014500004D01C4B13601368012BFCD1C0221A4B23
:101460001A60CDE7194B1A4A1A608022194B1202F2
:101470001A600F4B1B78012BC2D10E4B1B681B0748
:10148000D0D0BDE70D4B1B681342D1D18022C123C0
:101490000121DB00D205D150054B1B78012BAFD1C8
:1014A000044B1B681B07C3D0AAE73029B6D0B9E7A5
:1014B000E00F00F0E40F00F0E80F00F0EC0F00F098
:1014C00000EC06407593000014EC06400405004053
:1014D000DFFF07C0186C0040002310B59A4200D10E
:1014E00010BDCC5CC4540133F8E70000F8B5C04629
:1014F000F8BC08BC9E467047F8B5C046F8BC08BCAE
:101500009E46704700000020E7C2C3C4C5C6C7C8D6
:1015100000000000010000000000000001020000C7
:10152000FA0003000001022000000000000000009B
:08153000D8EBFF7F0100000071
:1015380000000000000000000000000000000000A3
:101548000000000000000000000000000000000093
:101558000000000000000000000000000000000083
:101568000000000000000000000000000000000073
:101578000000000000000000000000000000000063
:101588000000000000000000000000000000000053
:101598000200000000010000000000000000000040
:1015A8000000000000000000000000000000000033
:1015B8000000000000000000E7E7E7E7C2C2C2C27F
:1015C800E7C2C3C4C5C6C7C80805FF020024F400A3
:0815D800E9000000C100000061
:04000003000013AD39
:00000001FF
