:020000021000EC
:10C0000000400020A1CC0100DDCC0100DFCC01000C
:10C010000000000000000000000000000000000020
:10C02000000000000000000000000000E1CC010062
:10C030000000000000000000E3CC0100E5CC01009E
:10C04000E7CC0100E7CC010019D10100E7CC0100E9
:10C05000E7CC01000000000049CE0100E7CC010060
:10C06000E7CC0100E7CC010075CF0100E7CC01006F
:10C07000E7CC0100E7CC0100E7CC0100E7CC0100F0
:10C08000E7CC010051D40100E7CC0100E7CC01006E
:10C09000E7CC0100E7CC0100E7CC0100E7CC0100D0
:10C0A000E7CC0100E7CC0100000000000000000028
:10C0B0000000000000000000000000000000000080
:10C0C00010B5064C2378002B07D1054B002B02D06E
:10C0D000044800E000BF0123237010BD8829002020
:10C0E0000000000004EB0100044B10B5002B03D04E
:10C0F0000349044800E000BF10BDC0460000000036
:10C100008C29002004EB0100164B002B00D1144BAE
:10C110009D46402292029A1A924600218B460F4673
:10C120001348144A121A01F051FD0F4B002B00D096
:10C1300098470E4B002B00D09847002000210400A8
:10C140000D000D48002802D00C4800F0E0FC01F082
:10C15000FBFC2000290000F082FD00F0D5FCC04669
:10C1600000000800004000200000000053CC010047
:10C1700088290020702B00200FCB01000000000058
:10C1800010B503681B69984710BD10B503689B691B
:10C19000984710BD10B503689B6A984710BD0020F2
:10C1A000814200D11938704701207047704710B59F
:10C1B000036801221B690021984710BD002210B5B9
:10C1C000036811001B69984710BD0000EFF310834E
:10C1D000DB4372B6044A1178002904D101310348C7
:10C1E0000B40037011707047A5290020A42900207E
:10C1F00010B5EFF31083DB0704D436220649074855
:10C2000000F02EFA0022064B1A70064B1B78934260
:10C2100000D062B610BDC04614E401006AE401001B
:10C22000A5290020A42900200023C35610B50133FE
:10C2300004D124220549064800F012FA4368002977
:10C2400002D0C268136010BD0269FBE784E40100FC
:10C25000F2E4010070B50D000400160000F0BCFD12
:10C260006B1C0BD031002000FFF7DEFF0121200006
:10C2700000F0D0FD0021200000F0C6FD70BD10B51B
:10C280000022FFF7E7FF10BDF0B5446887B0230038
:10C290003A331E780500002E46D103685B68984744
:10C2A0006B681B6A83423FD0236AE268C31A1A4054
:10C2B0000092A368304A0196206293422CD00098E5
:10C2C000019922003B3215780293A26AE36A049234
:10C2D0000593294A0023039601F0C8F906000F00D0
:10C2E000002D30D02A0001F089F9049A059B92199B
:10C2F0007B4116001F002A000090019101F08AF98D
:10C3000032003B00121A8B41039999420ED10299D7
:10C3100091420BD9A262E362226B636B0098019990
:10C32000801859412063616307B0F0BD0120009D72
:10C33000019E00212D184E41009501960298039907
:10C34000121A8B41E6E7029A039B01F06FF906008F
:10C350000F000498059912184B4103990096019714
:10C36000994202D102999142D4D801200021361875
:10C370004F4100960197E1E740420F0003008242DF
:10C3800006D901208A4202D9994280414042704731
:10C3900000208B42FBD991424041F8E7F7B546684F
:10C3A000050033003A331B78002B5ED1330039335C
:10C3B0001B78002B59D1FFF767FF6C686168002973
:10C3C00054D0226B636B08684968994206D801D142
:10C3D000904203D82B685B69984746E0801A9941E0
:10C3E000E36927698B420CD302D1A369834208D346
:10C3F000A3680193019A224B9A420FD1874200D938
:10C400000700236AFF18E3681F40336ABB421ED14E
:10C4100084221C4952001C4800F022F923003B33BF
:10C420001B789C46002B0BD01A0001F0F3F8002378
:10C43000164A80185941124A002301F0F7F8DDE747
:10C4400002000B000198614601F010F9EFE72B683C
:10C4500038001B6998472B685B6898473A000100D1
:10C46000306AFFF78BFF0028B4D1F7BD336A326919
:10C47000F0689B1818402B681B699847F5E7C04681
:10C4800040420F000CE5010058E501003F420F005B
:10C490004368F0B51A003832127887B00400002AD9
:10C4A0006DD13A331B78002B69D103681B6898471C
:10C4B0002368DB69984705681F230122002D04D1FA
:10C4C0002C323049304800F0CBF8D9B2039111003A
:10C4D00099408D4203D0013B002BF6D10393436872
:10C4E0000293043B1C2B01D93B22EAE707229A4026
:10C4F0000192D1170023254A019801F0B7F80027CF
:10C500002E0001225242D31792197B4180185941C3
:10C510002A003B0001F08AF8002367680490059127
:10C520003B607B6023685B68984700220023386289
:10C5300067680120BA62FB626A463B00117B3B33AD
:10C54000BD60029A1970002101F064F80499059AFF
:10C55000019BB961FA613B61002200233A637B636E
:10C560003B0001383933F8601A705A7001233837AC
:10C5700020003B70FFF788FE2000FFF70FFF07B099
:10C58000F0BDC0460CE501000AE5010040420F0085
:10C5900010B5040000F004F92368DB68984763686D
:10C5A0001A003A321278002A02D000F00FF910BDBA
:10C5B000012239331A7063685B68002B15D02000A4
:10C5C000FFF762FE63685A68596B506888420CD85E
:10C5D00003D11168186B814207D8D16859601B6874
:10C5E000002BE8D090689847E5E7002263682000B8
:10C5F00039331A70FFF7D2FED7E770B50400FFF7A2
:10C6000047FF00F0CDF82000FFF73EFE63681C6B8B
:10C610005D6B00F0DBF82900200070BD10B5FFF75E
:10C62000ECFF10BD004870477CE50100034B10B5DE
:10C630001B68002B01D00248984710BD0428002039
:10C640007CE501000020704710B501F011FB10BD22
:10C6500010B501F06BFB10BD10B501F0BFFA10BDB5
:10C6600073B504000D00160000F09AF800962B0038
:10C6700000222100014800F09DF9C0464401FF80DE
:10C6800010B5242201490248FFF7EAFF84E40100C3
:10C69000F2E4010010B588B0152102A8FFF7EFFD04
:10C6A000042402AB1B785BB2013301D1FFF7E8FF32
:10C6B000059B039A18481A60019200F0D6FA02AB63
:10C6C0001B785BB20133F1D0039A069B12481A60C3
:10C6D000013C019200F0C9FA002CE2D1043402AB13
:10C6E0001B785BB20133E1D0059B039A0B481A60BB
:10C6F000019200F0BAFA02AB1B785BB20133D5D0DD
:10C70000039A069B05481A60013C019200F0ADFABD
:10C71000002CE4D1C4E7C046F0490200801A0600AC
:10C7200010B5040000F03CF8200001F0ADFC210041
:10C730000200022000F06AFA00F048F810BD000084
:10C7400010B5A2B002000B0001A8842101F0CEFCBC
:10C750000400832805D9832005220549684401F097
:10C760002CFA002C02DD01A8FFF7DAFF22B010BD81
:10C77000A4E501000FB407B504A901C90191FFF7B1
:10C78000DFFF03B008BC04B01847EFF310830120AB
:10C7900098437047EFF30580431E9841C0B270473D
:10C7A00010B5074C2368013304D1512205490648CE
:10C7B000FFF756FFFFF70AFD23680133236010BD22
:10C7C000E8290020A9E50100F8E50100064B10B5B5
:10C7D0001A68002A07D01A68013A1A601B68002BF1
:10C7E00001D1FFF705FD10BDE829002070B5050057
:10C7F000FFF7D6FF2C780123E4B2601E84412B7032
:10C80000FFF7E4FFE0B270BD10B50C48FFF7EEFF94
:10C81000002805D0FFF7C4FFBFF34F8F20BFFDE70F
:10C82000FFF7B8FF002801D0FFF734FFFFF7ADFF97
:10C830000028F9D0012000F067F9C0462C2A00201A
:10C8400070B504008EB00D001600002800DB134CFC
:10C850003422002101A801F0B9F901940296039550
:10C86000FFF79EFF0E4A136801331360012B04D1BA
:10C87000342201A90B4801F0A0F90B4C342201A984
:10C88000200001F09AF9094B1B68002B01D0200011
:10C890009847FFF79BFF00200EB070BD0101FF809D
:10C8A000EC290020F8290020302A0020F02900205F
:10C8B000F7B52F4C0E00216807004B0001929B0F2B
:10C8C0008DB2032B00D14D420B142A48DBB22A0053
:10C8D000FFF750FF28003238FF3813280FD800F038
:10C8E000F7FD0A2D3033363C393F0E0E0E0E0E0E7C
:10C8F0000E0E0E0E0E42A1681F48FFF73BFF3800D8
:10C90000FFF70EFF61681D48FFF734FF002E09D0C6
:10C910001B48FFF705FF3000FFF702FF0199194898
:10C92000FFF728FFA1681848FFF724FF2168174880
:10C93000FFF720FF1648FFF71DFFF7BDA168154858
:10C94000DBE7A1681448D8E7A1681448D5E7A168D7
:10C950001348D2E7A1681348CFE7A1681248CCE793
:10C96000A1681248C9E71248FFF704FFC7E7C046AD
:10C97000302A002029E601007AE6010022E70100C2
:10C9800033E701003BE701003FE7010053E7010007
:10C990009FE7010090E60100A0E60100AFE601007C
:10C9A000C2E60100D6E60100EAE60100F9E6010070
:10C9B0000FE70100F7B505000A4877460191160018
:10C9C0001C00FFF713FF002809D13A0031002800AE
:10C9D000FFF736FF089A21000198FFF769FFFFF77C
:10C9E00013FFC046F42900201D2040427047162046
:10C9F0004042704701207047002070477047000098
:10CA000070B515000C008E18B44205D0217803488B
:10CA100000F0B6FB0134F7E7280070BD602B002062
:10CA200070B58DB20024EB0705D5084800F0B6FBC1
:10CA3000441EA04104B21026354205D0034800F040
:10CA4000B4FB002800D03443200070BD602B0020D0
:10CA500010B5040001F09CF8200010BD002010B5B6
:10CA60000C00824204D0034800F07CFB20700120BF
:10CA700010BDC046602B002070B51D00084B04009F
:10CA800008330360074B1B68002B07D1064E3000AC
:10CA900000F0BEFA2900300000F02EFB200070BD2F
:10CAA000BCE70100282B0020602B002000207047ED
:10CAB0000020704703000C4910B50868C318EFF355
:10CAC0000882934205D30C220120084B40421A6091
:10CAD00010BD074A1468002C04D0064A12681219C7
:10CAE0009342F0D20B60F3E708290020682B002066
:10CAF0006C2A0020702A002010B5002801D0FFF712
:10CB0000C9FDFEE70120704710B5FFF7F5FF0120D2
:10CB100070477047704710B5FFF7FBFF10BD10B5A9
:10CB2000FFF7F8FF10BD0000032310B50278134093
:10CB3000012B0BD0002B04D0054A06490648FFF70D
:10CB40008FFD022313430370012010BD0020FCE77A
:10CB50008C05000014E8010065E8010010B50378B9
:10CB6000032219001140022904D0054A054906484C
:10CB7000FFF776FD934301221343037010BDC046B7
:10CB80009405000014E801008BE80100F8B50400EA
:10CB900000203F2C19DC184EA500A859431C14D1C5
:10CBA000022C12DC2000FFF783FF00280CD12000AC
:10CBB000FFF77CFF002807D1104F3B78BFF35B8F56
:10CBC0000F4CDB0702D520007051F8BD3800FFF78D
:10CBD000ABFF0028F7D096230B229B0109212000F0
:10CBE000FFF74AFF3800FFF7B9FF064A0649200061
:10CBF000FFF788FFE7E7C04608280020642A0020E6
:10CC0000682A002000280020FDC9010070B50C0032
:10CC10001500FFF7BBFF002807D100F08FFF0923A5
:10CC2000036001246442200070BD03682100DB68BA
:10CC30002A009847041EF6DA00F080FF6442046080
:10CC4000EFE70000004870470CE8010070477047AC
:10CC5000704710B5FFF7FBFFFFF7FAFF10BD10B5E7
:10CC6000FFF7F4FF00F002FC10BD70B50500FFF700
:10CC7000D9FC0400FFF7D2FC06002000FFF7CEFC31
:10CC8000801BA842F9D370BD10B5044900F0DAFD4D
:10CC900000F00AFFFFF7E9FF10BDC0460024744909
:10CCA0000848026803210A4302600749074A084B03
:10CCB0009B1A03DD043BC858D050FBDC0548804775
:10CCC000054800472405004010EB01000028002023
:10CCD00088290020E9CC010009C10100FEE7FEE738
:10CCE000FEE7FEE7FEE7FEE7324910B50B68DBB270
:10CCF000012B0FD1304B1B681B070BD12F4BE024AE
:10CD00001A68F02310001840224248D12C4A1268B9
:10CD10001A4247D00B68DBB2012B12D1264A1268A7
:10CD200012070ED1F021254A12680A40402A08D184
:10CD3000234A12680A4204D18021C122C905D200C7
:10CD40008B508022A32301210020D205DB00D1508B
:10CD50001C4B986091601C4A996800291ED1C8310B
:10CD6000C046C046C046C046C046C046C046C04693
:10CD7000C046C046C046C046C046C046013900292C
:10CD8000EED1013A002AE7D18021A320C905C000D5
:10CD90000A5001328A609A68002AFCD010BD3028FF
:10CDA000B4D0B7E7094B0A4A1A608022094B120235
:10CDB0001A60AFE7E00F00F0E40F00F0E80F00F0BA
:10CDC000EC0F00F0FC000040881300000405004058
:10CDD000DFFF07C0186C004001704B1C0AD0012314
:10CDE0008B404360044BC360044B0361044B4361BD
:10CDF000044B83607047C046080500500C05005086
:10CE0000100500501405005010B5007840B200F035
:10CE100095F810BD0023C35610B55A1C04D12A2220
:10CE200007490848FFF71CFC002902D0012900D05F
:10CE300010BDA022C133FF339B00D2059950F7E704
:10CE4000CAE80100F2E40100F7B5A223A022DB004A
:10CE5000D205D358BE220193314B52009958002974
:10CE60003FD0C1218900595800293ADA0024E02531
:10CE7000C0269C50ED00B6022A4BA700F8580028A7
:10CE80002CD0294BE35C002B17D0019B0121E34000
:10CE90000B4227D02300A022C133FF339B00D205D1
:10CEA0009B589B039B0F032B1CD0204B1B68E3401C
:10CEB0000B4217D01E4B1B689847A023DB05FF18B9
:10CEC0007A5932420AD07A591A490A407A51019A5B
:10CED000E240D3071FD57A5932437A5101341F2CCF
:10CEE000CAD1F7BD019B0122E3401342E5D12300E3
:10CEF000A021C133FF339B00C9055B589B039B0FE7
:10CF0000032BDAD10C4B1B68E3401342D5D0084BFE
:10CF100002211B68D0E78022795992020A43DCE79C
:10CF200000600040942A0020742A0020182B002062
:10CF3000102B0020FFFFFCFF142B002010B5431C1A
:10CF400004D11A2209490A48FFF78AFBA02380006E
:10CF5000DB05C018E0230C24DB00C2588900A24383
:10CF6000C250C2581143C15010BDC04635E901003E
:10CF7000F7E401000021114A114B1165114A118893
:10CF8000114A9950114A1178002904D01049088893
:10CF9000A821C90058505178002903D00C4948886D
:10CFA0000C4958509278002A04D0094A9188A92245
:10CFB000D200995001221A607047C046FCA0004080
:10CFC00000A000400C2900204C0500001C2B002074
:10CFD0000E29002044050000012310B50A4ADC0098
:10CFE00014598C4207DD013BDB00D3185A680168F5
:10CFF000064BCA5010BD0133112BF0D180210268BD
:10D00000024B4905D150F5E7A0E9010024050000D5
:10D01000F7B50F0001212F4BB9400360A023050095
:10D020002D48DB0516001A580A431A5080221C5856
:10D03000520014431C50294C1859014319511959D5
:10D0400028000A430121B1401A511A598A431A5142
:10D050001A5923490A4096211A518901FFF7BCFF4A
:10D06000002204202B681F495A506C395850180070
:10D070000121FC30996001901960C26001201A49B9
:10D08000404258500198026218481A500198006AAC
:10D090000128FBD16A60A1220730D20098505F506E
:10D0A0000A21083299501E517B1C03D007393800E1
:10D0B000FFF744FF731C03D003213000FFF73EFF4E
:10D0C00001220B4B29001A600A48073200F075FD57
:10D0D000F7BDC04600200040040500001405000014
:10D0E000FFFBFFFF6C0500000C0500001C050000A5
:10D0F000282B0020602B0020962310B5DB009942DE
:10D1000002DDFFF769FF10BD9E210268014BC902D5
:10D11000D150F8E724050000C1230E4A9B00D158E6
:10D1200010B5090603D50C49096A002908D1D3585E
:10D130005B0704D5084B0021DB68002B01D110BD33
:10D140000121064B18680028F9D0054B1B68984749
:10D15000F5E7C04600200040FC200040242B0020C2
:10D16000202B002003681A00FC32D1680129FCD171
:10D170000021D160A322D2009858C0B270470000AD
:10D1800003681A00FC32106A0128FCD100201062EA
:10D19000014AC9B2995070471C0500000368FC336E
:10D1A000D86801384342584170470368FC33186A15
:10D1B00001384342584170470A480B4982680B4B7B
:10D1C000002A08D01A6801321A6000228260D22236
:10D1D000022092008850064A1B688858190A1B06CC
:10D1E00018437047FC10014000100140302B002014
:10D1F000040500002F23C046C046C046C046C046B6
:10D20000C046C046C046C046C046C046C046C046EE
:10D21000C046013B002BEED1704770470121F8B5A5
:10D220001B4B1A780A4204D01A788A431A70FFF707
:10D23000FDF9184B184C9A68002A09D017490A685A
:10D2400001320A6000229A60D22202219200A1508B
:10D250005A6C002A1AD0002780255F64D2236D0201
:10D260009B00E5500E4B1B78BB420FD00D4B1E6848
:10D27000FFF7A2FF361ABE4208DC094B1F70C2231B
:10D280009B00E5504033E550FFF7D0F9F8BDC046AC
:10D290002C2B0020FC10014000100140302B0020FE
:10D2A000342B0020382B002070B5124C2278002A35
:10D2B0001ED1A121C425104BC9005A50C1390232D8
:10D2C000FF395A5044395A500C4AAD0051590C4854
:10D2D0000840C021090201435151C020802101258D
:10D2E00089024000115011601D60FFF783FF257017
:10D2F00070BDC0463C2B00200010014000E100E062
:10D30000FF00FFFF084B10B51B78002B01D1FFF782
:10D31000CBFFFFF751FF054A002300F0A7F94904AE
:10D32000C00B084310BDC0463C2B002040420F00FC
:10D33000F8B5284B04001B78002B01D1FFF7B4FF90
:10D34000FFF73AFF244A002300F090F94B04C00B8A
:10D35000CF0B1843002622000023802192197B4125
:10D360000906884205D9002C03DB00200121121890
:10D370004B41D9030023540CD003184A2143801891
:10D3800059410023144A00F051F9154D04002B783F
:10D39000144E002B02D0336883421AD0FFF70CFFE3
:10D3A000201A022802DCFFF707FF841CA8212202B2
:10D3B0000D4B120AC9005A502A783460002A08D14D
:10D3C00001322A708022F9395202FF395A50443909
:10D3D0005A50F8BD3C2B002040420F003F420F0046
:10D3E000342B0020382B00200010014010B5FFF72F
:10D3F000D7F90123054A11780B4313708022044B9F
:10D4000092025A60FFF7E2F910BDC0462C2B0020B3
:10D41000FCE100E0074B1A78002A09D08021C220E5
:10D42000054A4902800011504030115000221A7004
:10D430007047C046342B0020001001400022024BF0
:10D440009A605A647047C046FC1001407047000063
:10D4500005480168002901D0FFF7DFFE08B5FFF796
:10D46000DDFE08BDC04600004411014010B5002398
:10D470000D4CE356013304D124220C490C48FFF72C
:10D48000EFF8FE20E368626880051A60FFF7FCFB96
:10D490000023E3560133EFD0FE2023696268800544
:10D4A0001A60FFF7F1FBE2E7402B002084E4010063
:10D4B000F2E4010010B5054C18220021200000F014
:10D4C00085FB15212000FEF7DAFE10BD402B002061
:10D4D00002B4714649084900095C49008E4402BC07
:10D4E0007047C046002243088B4274D303098B4225
:10D4F0005FD3030A8B4244D3030B8B4228D3030C24
:10D500008B420DD3FF22090212BA030C8B4202D3C5
:10D510001212090265D0030B8B4219D300E0090AED
:10D52000C30B8B4201D3CB03C01A5241830B8B42F6
:10D5300001D38B03C01A5241430B8B4201D34B03DF
:10D54000C01A5241030B8B4201D30B03C01A524144
:10D55000C30A8B4201D3CB02C01A5241830A8B42C9
:10D5600001D38B02C01A5241430A8B4201D34B02B2
:10D57000C01A5241030A8B4201D30B02C01A524116
:10D58000CDD2C3098B4201D3CB01C01A52418309CA
:10D590008B4201D38B01C01A524143098B4201D304
:10D5A0004B01C01A524103098B4201D30B01C01A2F
:10D5B0005241C3088B4201D3CB00C01A52418308A9
:10D5C0008B4201D38B00C01A524143088B4201D3D6
:10D5D0004B00C01A5241411A00D201465241104636
:10D5E0007047FFE701B5002000F006F802BDC04615
:10D5F0000029F7D076E770477047C046D0400B1C33
:10D60000D1409C46203AD34018435242634693404F
:10D61000184370479140031C90409C46203A934029
:10D62000194352426346D34019437047002B11D12E
:10D63000002A0FD1002900D1002802D00021C943BF
:10D64000081C07B4024802A14018029003BDC0465E
:10D65000A9FFFFFF03B4684601B5029800F030F857
:10D66000019B9E4602B00CBC7047C046F0B5CE464A
:10D67000474615042D0C2E0080B50704140C3F0CF2
:10D680009946030C7E435D43674363437F19340C23
:10D69000E4199C46A54203D980235B029846C44402
:10D6A0004B4643435143250C36046544360C240451
:10D6B000A4195B19591820000CBC90469946F0BD7E
:10D6C000F0B54F464646D646C0B5040082B00D00C0
:10D6D000914698468B422FD82CD04146484600F0C0
:10D6E00021FA29000600200000F01CFA331A9C469B
:10D6F000203B9A4600D576E04B46524693401F00A9
:10D700004B46624693401E00AF4228D825D0534670
:10D71000A41BBD41002B00DA7BE000220023009215
:10D7200001930123524693400193012362469340A3
:10D73000009318E08242D0D9002200230092019386
:10D740000A9B002B01D01C605D600098019902B01B
:10D750001CBC90469946A246F0BDA342D7D90022F0
:10D760000023009201936346002BE9D0FB07984603
:10D77000414672080A437B0866460EE0AB4201D17F
:10D78000A2420CD8A41A9D41012024196D41002108
:10D79000013E24184D41002E06D0AB42EED9013E89
:10D7A00024196D41002EF8D10098019953460019B3
:10D7B0006941002B23DB2B005246D3402A006446EC
:10D7C000E2401C0053461500002B2DDB2600574677
:10D7D000BE40330026006746BE403200801A9941A1
:10D7E00000900191ACE7624620239B1A4A46DA403A
:10D7F0006146130042468A4017001F4380E7624695
:10D8000020239B1A2A0066469A402300F3401343C4
:10D81000D4E76246202300219B1A00220091019246
:10D820000122DA40019280E72023624626009B1AFB
:10D83000DE402F00B0466646B74046463B003343C5
:10D84000C8E7C046F0B54E4657464546DE46E0B509
:10D8500043025B0A450083B00F1C99462D0EC60F8C
:10D86000002D57D0FF2D24D08020DB00C0041843AA
:10D87000002381469A469B467F3D7C027A00FB0F3F
:10D88000640A120E984623D0FF2A4BD0E30080246E
:10D890000020E4047F3A1C43AD186B1C47460193FB
:10D8A000534677403A000F2B48D87D499B00CB5810
:10D8B0009F46002B00D085E008339A46063B9B46E6
:10D8C0007C027A00FB0FFF25640A120E9846DBD11A
:10D8D000002C00D090E0524601231A4392460120CA
:10D8E000DBE74C4658461700022824D0032800D115
:10D8F000CFE00022002301284DD15802D205400A72
:10D90000FF071043384303B03CBC90469946A246FB
:10D91000AB46F0BD002B5BD104239A46033B0025A8
:10D920009B46AAE7FF35002C60D1524602231A43DA
:10D9300092460220B1E7FF220023DEE74B461B0C94
:10D940009C464B462604360C180461463300220CD4
:10D950006446000C43434E435043544380191A0C11
:10D960001218964203D9802149028C4664441B0454
:10D970001B0C1004C01883015E1EB341800E1843B7
:10D98000130C1B199B0103431C00230179D50123B0
:10D9900062081C401443019A7F32002A4DDD630760
:10D9A00004D00F232340042B00D00434230103D5DB
:10D9B0003C4B019A1C408032FE2ABCDCA3015B0A6E
:10D9C000D2B29AE70C239A46093BFF259B4654E7BF
:10D9D000180000F089F84A46431F76259A40002334
:10D9E0006D4291462D1A9A469B4646E752460323BE
:10D9F0001A439246032050E7200000F075F8431FB9
:10DA00002D1A9C40763D002047E780230027DB034A
:10DA1000FF2272E7424666E74C463200584662E70C
:10DA200080234A46DB031A4222D01C4220D12343E2
:10DA30005B025B0A4746FF225FE701239A1A1B2A13
:10DA400021DC23000199D3409E318C401A00230031
:10DA50005C1EA34113435A0704D00F221A40042A24
:10DA600000D004335A0111D49B015B0A002244E721
:10DA700080234A46DB0313435B025B0A3700FF2225
:10DA80003BE7019587E70022002336E701220023C8
:10DA900033E78023DB0323435B025B0AFF222CE78F
:10DAA00030EA0100FFFFFFF741024200C30F490ABD
:10DAB000120E00207E2A0DD99D2A0CD88020000449
:10DAC0000143952A0ADC9620821AD1404842002B55
:10DAD00000D108007047034A9818FBE7963A914036
:10DAE000F4E7C046FFFFFF7F1C2101231B0498427F
:10DAF00001D3000C10391B0A984201D3000A0839DF
:10DB00001B09984201D30009043902A2105C401895
:10DB10007047C04604030202010101010000000039
:10DB20000000000010B5002903D1FFF7DDFF203011
:10DB300002E0081CFFF7D8FF10BDC046014B186873
:10DB40007047C0461429002070B500260C4D0D4CBE
:10DB5000641BA410A64209D1002600F04FFC0A4D18
:10DB60000A4C641BA410A64205D170BDB300EB584B
:10DB700098470136EEE7B300EB5898470136F2E7D5
:10DB80007829002078290020782900208029002089
:10DB900010B5034B01001868FEF75EFD10BDC046CE
:10DBA00014290020C9B28218904201D10020704788
:10DBB00003788B42FBD00130F6E7002310B59A4280
:10DBC00000D110BDCC5CC4540133F8E70300121837
:10DBD000934200D1704719700133F9E770B5050021
:10DBE000002910D00C1F2368002B00DAE41828004D
:10DBF000FEF791FF1D4A1368002B05D16360146086
:10DC00002800FEF78CFF70BDA34209D92168601877
:10DC10008342F3D118685B6841182160EEE7130076
:10DC20005A68002A01D0A242F9D919685818A042AE
:10DC30000BD120680918581819608242E0D1106889
:10DC40005268411819605A60DAE7A04202D90C23E1
:10DC50002B60D5E721686018824203D110685268B2
:10DC60004118216062605C60CAE7C046582B002002
:10DC7000032370B5CD1C9D43083506000C2D1ED224
:10DC80000C25A9421DD83000FEF745FF254A14682F
:10DC90002100002919D1244C2368002B03D1300026
:10DCA00000F0E0F920602900300000F0DBF9431CAF
:10DCB0002BD10C2330003360FEF731FF03E0002D41
:10DCC000DFDA0C233360002070BD0B685B1B19D4B6
:10DCD0000B2B03D90B60CC18256003E04B688C42FA
:10DCE0000DD113603000FEF71AFF200007220B3021
:10DCF000231D9043C31AE7D05A42E250E4E7636021
:10DD00000C00EFE70C004968C3E70323C41C9C43E5
:10DD1000A042E1D0211A300000F0A4F9431CDBD16D
:10DD2000C7E7C046582B00205C2B0020F8B5070041
:10DD30000D001600002905D11100FEF785FC040036
:10DD40002000F8BD002A03D1FEF786FC3400F7E777
:10DD500000F0EBF92C00B042F2D231003800FEF7AF
:10DD600073FC041EECD029003200FFF726FF2900C7
:10DD70003800FEF771FCE3E7F7B5150001938A68F8
:10DD80000B6900900C00934200DA130022002B6014
:10DD900043321278002A01D001332B6023689B069E
:10DDA00002D52B6802332B60062723681F4027D03B
:10DDB000230043331B785A1E93412268920630D4C5
:10DDC0002200019943320098089EB047431C25D099
:10DDD000062320682A68E16803400025042B03D14C
:10DDE0008D1AEB43DB171D40A3682269934201DDC6
:10DDF0009B1AED180027BD4220D1002010E001370A
:10DE0000E3682A689B1ABB42D2DD22000123193243
:10DE100001990098089EB047431CF0D10120404270
:10DE2000FEBD3020E1184331087021005A1C4531F5
:10DE30000978A218433202331170C1E7220001238E
:10DE40001A3201990098089EB047431CE6D001376A
:10DE5000D1E70000F0B589B004920A00433205937F
:10DE6000039002920A7E0C000E9B6E2A00D186E07F
:10DE70001FD8632A33D008D8002A00D18CE0582A52
:10DE80004DD0250042352A7030E0642A01D0692A3D
:10DE9000F7D1196825680A1D280629D508681A606F
:10DEA000002803DA2D23029A404213706B4E0A2792
:10DEB0004FE0732A74D008D86F2A1FD0702AE0D19F
:10DEC000202209680A43226003E0752A16D0782AC6
:10DED000D7D12200782145321170614E22E0250011
:10DEE0001A684235111D196013682B70012365E013
:10DEF00008681A606906D3D500B2D1E719682568A9
:10DF0000081D186008682E0605D5544E08276F2A8C
:10DF10001BD00A2719E06D06F7D580B2F5E7453129
:10DF20004E4E0A7018682268011D006819601506B7
:10DF300021D5D30702D520231A43226010270028B9
:10DF400003D1202322689A43226023000022433316
:10DF50001A706368A360002B58DB04222168914388
:10DF60002160002854D1029D002B5AD0250033781F
:10DF700042352B7055E05506DBD580B2D9E71A68DB
:10DF80000D68101D4969186013682E0601D51960C7
:10DF900002E06D06FBD519800023029D23614FE04E
:10DFA0001A68111D19601568002162682800FFF7C2
:10DFB000F9FD002801D0401B6060636823610023E5
:10DFC000029A13703CE023692A0004990398059D86
:10DFD000A847431C3ED023689B0715D4079BE068E5
:10DFE000984239DA180037E02200012319320499E7
:10DFF0000398059EB047431C2CD00135E368079A6F
:10E000009B1AAB42F0DCE9E70025F7E70028ADD02A
:10E01000029D3900FFF7ECFA735C013D2B7000287C
:10E02000F7D1082F09D12368DB0706D56368226979
:10E03000934202DC3023013D2B70029B5B1B23616A
:10E04000059B07AA00932100049B0398FFF794FE09
:10E05000431CB8D10120404209B0F0BDD0EA010014
:10E06000E1EA0100002370B5064C050008002360BA
:10E07000FEF720FD431C03D12368002B00D02B604A
:10E0800070BDC046682B00200023C25C0133002A0B
:10E09000FBD1581E704730B514009BB005001A0024
:10E0A000002C05DA8B230360012040421BB030BDF9
:10E0B000822368469B0083810023009104919C4247
:10E0C00000D0631E02930593012369465B42CB8116
:10E0D00028001E9B00F094F8431C01DA8B232B6070
:10E0E000002CE3D00023009A1370DFE707B50093FC
:10E0F00013000A00010002480068FFF7CCFF0EBDC4
:10E100001429002010B5884202D98B18984203D3F5
:10E11000002307E08B5C8354013AFBD210BDCC5C3A
:10E12000C45401339A42FAD1F8E70B1F1B68181F39
:10E13000002B01DA0B58C01870470000F0B58E684C
:10E1400085B007000C00039201939E423CD89023B7
:10E150008A89DB001A4234D00325096923685B1AD7
:10E160000293636902985D43EB0F5D19019B6D108B
:10E1700001331B18AB4200D91D00530532D52900CD
:10E180003800FEF761FA061E09D10C233B604023DC
:10E190000120A28940421343A38105B0F0BD029A39
:10E1A0002169FFF70AFDA389144A1A40802313430B
:10E1B000A381029B2661F61826606561019EED1A17
:10E1C000A560019B9E4200D9019E32000399206800
:10E1D000FFF798FFA36800209B1BA36023689E198C
:10E1E0002660DAE72A003800FEF732FA061EE0D190
:10E1F00021693800FEF730FAC7E7C0467FFBFFFF12
:10E20000F0B59FB0029005938B890F0016001B0696
:10E2100011D50B69002B0ED14021FEF715FA38609D
:10E220003861002805D10C23029A013813601FB011
:10E23000F0BD40237B61002306AC6361203363762D
:10E240001033A37635002B78002B01D0252B46D137
:10E25000AB1B04930CD0320039000298FFF76EFF1D
:10E26000431C00D1AEE06269049B94466344636141
:10E270002B78002B00D1A5E00122002352426260DE
:10E2800002A9543252186E1C2360E360A36013701D
:10E29000A365317805225448FFF784FC751C0028DB
:10E2A0001FD12268D30604D5532302A95B1820216D
:10E2B0001970130704D5532302A95B182B21197079
:10E2C00033782A2B16D0350000210A20E3682A78FB
:10E2D0006E1C303A092A4ED9002918D010E00135B9
:10E2E000B1E7414B2268C01A0123834013432360E6
:10E2F0002E00CEE7059B191D1B680591002B01DB45
:10E30000099304E05B42E3600223134323602B780C
:10E310002E2B0AD16B782A2B35D1059B02351A1D7D
:10E320001B680592002B2BDB0793304E29780322C4
:10E330003000FFF737FC002806D04023801B8340C5
:10E3400022680135134323602978062228486E1C71
:10E350002176FFF727FC00283CD0264B002B25D147
:10E360000722059B07339343083305936369039A98
:10E370009B18636166E7434301219B183500A6E7BC
:10E3800001235B42D0E700230A201A0001356360B5
:10E3900029786E1C3039092903D9002BC5D0079282
:10E3A000C3E74243012352183500F1E705AB009360
:10E3B0003A00114B2100029800E000BF0390039B3C
:10E3C0000133D3D1BB890B985B0600D42FE7012022
:10E3D00040422CE705AB00933A00074B210002981E
:10E3E000FFF738FDEAE7C046F2EA0100F8EA01006B
:10E3F000FCEA0100000000003DE10100F8B5C04664
:10E40000F8BC08BC9E467047F8B5C046F8BC08BCCE
:10E410009E4670472F55736572732F6D79626179CF
:10E420007377616E672F2E706C6174666F726D69A1
:10E430006F2F7061636B616765732F6672616D65C5
:10E44000776F726B2D6D6265642F68616C2F6D62E2
:10E4500065645F637269746963616C5F736563743B
:10E46000696F6E5F6170692E6300216172655F691B
:10E470006E74657272757074735F656E61626C65DF
:10E48000642829002F55736572732F6D7962617945
:10E490007377616E672F2E706C6174666F726D6931
:10E4A0006F2F7061636B616765732F6672616D6555
:10E4B000776F726B2D6D6265642F7461726765741E
:10E4C000732F5441524745545F4E4F524449432F96
:10E4D0005441524745545F4D43555F4E5246353186
:10E4E0003832322F6770696F5F6F626A6563742EAE
:10E4F00068006F626A2D3E70696E20213D202850B1
:10E50000696E4E616D65294E430030002F5573656D
:10E5100072732F6D796261797377616E672F2E70D8
:10E520006C6174666F726D696F2F7061636B616788
:10E5300065732F6672616D65776F726B2D6D6265A5
:10E54000642F68616C2F6D6265645F7469636B65CD
:10E55000725F6170692E63006D617463685F7469D6
:10E56000636B20213D2071756575652D3E7469636F
:10E570006B5F6C6173745F726561640084E50100B8
:10E58000A8290020A9D2010005D3010015D401005B
:10E590003DD4010031D30100EDD301004DD4010081
:10E5A00045CC01002E2E2E0A002F55736572732F55
:10E5B0006D796261797377616E672F2E706C61740B
:10E5C000666F726D696F2F7061636B616765732F22
:10E5D0006672616D65776F726B2D6D6265642F7009
:10E5E0006C6174666F726D2F6D6265645F637269D2
:10E5F000746963616C2E6300637269746963616C32
:10E600005F73656374696F6E5F7265656E74726166
:10E610006E63795F636F756E746572203C20554937
:10E620004E5433325F4D4158000A0A2B2B204D6265
:10E6300065644F53204572726F7220496E666F2079
:10E640002B2B0A4572726F72205374617475733A82
:10E65000203078255820436F64653A202564204D8A
:10E660006F64756C653A2025640A4572726F72207A
:10E670004D6573736167653A20004B65726E656C1A
:10E68000204572726F723A203078256C582C200029
:10E690005468726561643A203078256C582C2000EB
:10E6A0004D757465783A203078256C582C200053CD
:10E6B000656D6170686F72653A203078256C582CF2
:10E6C00020004D656D6F7279506F6F6C3A20307815
:10E6D000256C582C20004576656E74466C61677316
:10E6E0003A203078256C582C200054696D65723AB8
:10E6F000203078256C582C20004D65737361676558
:10E7000051756575653A203078256C582C2000418C
:10E710007373657274696F6E206661696C65643AC3
:10E7200020000A4C6F636174696F6E3A203078255F
:10E730006C58000A46696C653A20002B2564000A73
:10E740004572726F722056616C75653A203078257B
:10E750006C58000A466F72206D6F726520696E6694
:10E760006F2C2076697369743A2068747470733AF8
:10E770002F2F61726D6D6265642E676974687562B2
:10E780002E696F2F6D6265646F732D6572726F7283
:10E790002F3F6572726F723D307825303858000A0D
:10E7A0002D2D204D6265644F53204572726F72208B
:10E7B000496E666F202D2D0A000000000000000049
:10E7C00000000000FDC9010051CA01005DCA01003E
:10E7D00001CA0100E9C90100F9C9010045C60100EB
:10E7E000F5C90100AFC10100BDC10100EFC90100C1
:10E7F00081C101008BC1010095C101009FC10100D1
:10E80000A9C1010021CA0100ADC1010040420F00B1
:10E81000200000002F55736572732F6D7962617946
:10E820007377616E672F2E706C6174666F726D699D
:10E830006F2F7061636B616765732F6672616D65C1
:10E84000776F726B2D6D6265642F706C6174666F8B
:10E85000726D2F6D6265645F726574617267657455
:10E860002E6370700030203D3D20282A677561724C
:10E87000645F6F626A6563742026204358415F4776
:10E88000554152445F4D41534B29004358415F4726
:10E89000554152445F494E49545F494E5F50524F73
:10E8A0004752455353203D3D20282A6775617264C5
:10E8B0005F6F626A6563742026204358415F475545
:10E8C0004152445F4D41534B29002F55736572737C
:10E8D0002F6D796261797377616E672F2E706C612D
:10E8E00074666F726D696F2F7061636B61676573BA
:10E8F0002F6672616D65776F726B2D6D6265642F27
:10E90000746172676574732F5441524745545F4E6A
:10E910004F524449432F5441524745545F4D43554C
:10E920005F4E524635313832322F6770696F5F6102
:10E9300070692E63002F55736572732F6D79626154
:10E94000797377616E672F2E706C6174666F726D6C
:10E95000696F2F7061636B616765732F6672616D9C
:10E9600065776F726B2D6D6265642F746172676578
:10E9700074732F5441524745545F4E4F524449439C
:10E980002F5441524745545F4D43555F4E524635D3
:10E99000313832322F70696E6D61702E6300000065
:10E9A000B004000000F004006009000000D009007D
:10E9B000C012000000B013008025000000502700A6
:10E9C0004038000000003B00004B000000A04E005B
:10E9D0008070000000F07500127A000000008000D6
:10E9E0000096000000509D00C0DA00000010E50015
:10E9F00000E1000000F0EB00002C010000903A0163
:10EA000000C2010000E0D7010084030000B0AF03A2
:10EA100090D00300000000040008070000705F07AA
:10EA200000100E0000D0BE0E40420F00000000108B
:10EA30003CD90100E6D80100E6D8010014DA010053
:10EA4000E2D80100E2D801000ADA010014DA01007C
:10EA5000E2D801000ADA0100E2D8010014DA01006C
:10EA600018DA010018DA010018DA010020DA0100D2
:10EA70000000000000000000000000000000000096
:10EA80000000000000000000000000000000000086
:10EA90000000000000000000000000000000000076
:10EAA0000000000000000000000000000000000066
:10EAB0000000000000000000000000000000000056
:10EAC0000000000000000000000000000000000046
:10EAD0003031323334353637383941424344454694
:10EAE000003031323334353637383961626364652A
:10EAF0006600232D302B2000686C4C00656667454E
:08EB0000464700000000000080
:08EB080000D6FF7F01000000B0
:10EB10000000000091C50100FFFFFFFFFFFFFFFFA6
:10EB2000FFFFFFFF000000000000000000000000E9
:10EB300000000000000000000000000000000000D5
:10EB400000000000000000000000000000000000C5
:10EB500000000000000000000000000000000000B5
:10EB600000000000000000000000000000000000A5
:10EB70000000000000000000000000000000000095
:10EB80000000000000000000000000000000000085
:10EB90000000000000000000000000000000000075
:10EBA0000000000000000000000000000000000065
:10EBB0000000000000000000000000000000000055
:10EBC0000000000000000000000000000000000045
:10EBD0000000000000000000000000000000000035
:10EBE0000000000000000000000000000000000025
:10EBF0000000000000000000000000000000000015
:10EC00000000000000000000000000000000000004
:10EC10000000000000000000702B0020881301009D
:10EC200001000100182900200000000090EA010006
:10EC3000B0EA010070EA01000000000000000000DE
:10EC400000000000000000000000000000000000C4
:10EC500000000000000000000000000000000000B4
:10EC600000000000000000000000000000000000A4
:10EC70000000000000000000000000000000000094
:10EC80000000000000000000E9C00100B5D4010050
:08EC9000C1C0010000000000FA
:040000031000CCA17C
:00000001FF
